S00D00004C61625F362E7372656373
S113000045C0000058C0000056C0000054C00000A5
S113001052C0000050C000004EC000004CC00000A0
S11300204AC0000048C0000046C0000044C00000B0
S113003042C0000040C000003EC000003CC00000C0
S11300403AC0000038C0000036C0000034C00000D0
S113005032C0000030C000002EC000002CC00000E0
S11300602AC0000028C0000026C0000024C00000F0
S113007022C0000020C000001EC000001CC0000000
S11300801AC0000018C0000016C0000011241FBED2
S1130090CFEFD0E1DEBFCDBF12E0A0E0B1E0ECEEE7
S11300A0FAE000E00BBF02C007900D92A83CB10734
S11300B0D9F77BD219C5A4CF2F923F924F925F926A
S11300C06F927F928F929F92AF92BF92CF92DF9264
S11300D0EF92FF920F931F93CF93DF93CDB7DEB7C9
S11300E06A970FB6F894DEBF0FBECDBF8B019C019B
S11300F0220F331F88EE93E0B901CFD47A8369834A
S1130100B901330F880B990BB1D39B01AC0160E0AB
S113011070E08AE794E40FD36B017C0129813A8172
S1130120B901330F880B990BA1D36D837E838F8321
S113013098879B01AC01C701B60194D220E030E05E
S11301404AE754E447D45FD31B0180E090E09A8FE0
S1130150898F0CC288B3806188BB2BEA3AEA4AEAE9
S113016050E46D817E818F81988534D46B017C014C
S113017020E030E040E850E46D817E818F819885F5
S113018029D469837A838B839C8320E030E040E820
S11301905FE3C701B601CBD288230CF462C020E030
S11301A03FEF4FE757E469817A818B819C810ED4BC
S11301B018160CF03FC020E030E04AE754E46D81AB
S11301C07E818F819885B7D22B013C0120E030E0FD
S11301D04AE755E4FFD34B015C0120E030E040E8FE
S11301E05FE3A5D2882304F120E03FEF4FE757E413
S11301F0C501B401EBD318169CF420E030E040E2D2
S113020051E4C301B201E6D303D306C080E991E00F
S11302100197F1F76150710961157105B9F723C0B0
S1130220C501B401F5D202C061E070E0CB010197D1
S1130230F1F719C020E030E04FE753E4C701B601FD
S1130240C5D318164CF469817A818B819C81E0D2E4
S1130250CB010197F1F70AC0C701B601D9D2688B67
S113026002C091E0988B88898A95F1F7B101032C3B
S1130270000C880B990BFAD24B015C012BEA3AEA89
S11302804AEA50E4A7D32B013C0120E030E040E8E7
S113029050E4C501B4019ED369877A878B879C8714
S11302A020E030E040E85FE3C301B20140D288239C
S11302B00CF46AC020E03FEF4FE757E469857A8584
S11302C08B859C8583D318160CF047C020E030E062
S11302D04AE754E4C501B4012ED26D8B7E8B8F8B1B
S11302E0988F20E030E04AE755E474D3698B7A8B29
S11302F08B8B9C8B20E030E040E85FE318D28823AE
S113030034F120E03FEF4FE757E469897A898B891C
S11303109C895CD31816ACF420E030E040E251E450
S11303206D897E898F89988D55D372D206C080E9F4
S113033091E00197F1F76150710961157105B9F701
S113034025C069897A898B899C8962D202C061E05F
S113035070E0CB010197F1F719C020E030E04FE7DE
S113036053E4C301B20132D318164CF469857A857B
S11303708B859C854DD2CB010197F1F70AC0C3014F
S1130380B20146D26F8702C091E09F878F858A951C
S1130390F1F788B38F7E88BB20E030E040E85FE36C
S11303A0C701B601C4D188230CF466C020E03FEF36
S11303B04FE757E469817A818B819C8107D31816B2
S11303C00CF043C020E030E04AE754E46D817E81C4
S11303D08F819885B0D169837A838B839C8320E055
S11303E030E04AE755E4F6D26B017C0120E030E0CE
S11303F040E85FE39CD1882314F120E03FEF4FE70E
S113040057E4C701B601E2D21816ACF420E030E09C
S113041040E251E469817A818B819C81DBD2F8D1FD
S113042006C080E991E00197F1F761507109611507
S11304307105B9F723C0C701B601EAD102C061E072
S113044070E0CB010197F1F719C020E030E04FE7ED
S113045053E4C701B601BAD218164CF469817A8103
S11304608B819C81D5D1CB010197F1F70AC0C701DB
S1130470B601CED16E8702C091E09E878E858A95A3
S1130480F1F720E030E040E85FE3C301B2014FD16F
S113049088230CF460C020E03FEF4FE757E4698500
S11304A07A858B859C8592D218160CF03DC020E08D
S11304B030E04AE754E4C501B4013DD14B015C018D
S11304C020E030E04AE755E485D26B017C0120E06E
S11304D030E040E85FE32BD1882304F120E03FEFD4
S11304E04FE757E4C701B60171D218169CF420E017
S11304F030E040E251E4C501B4016CD289D106C0B8
S113050080E991E00197F1F7615071096115710576
S1130510B9F723C0C701B6017BD102C061E070E026
S1130520CB010197F1F719C020E030E04FE753E425
S1130530C301B2014BD218164CF469857A858B85B8
S11305409C8566D1CB010197F1F70AC0C301B201C2
S11305505FD16D8702C091E09D878D858A95F1F703
S1130560298D3A8D2F5F3F4F3A8F298F898D9A8D30
S1130570801791070CF4EECD6A960FB6F894DEBF9F
S11305800FBECDBFDF91CF911F910F91FF90EF90E0
S1130590DF90CF90BF90AF909F908F907F906F909F
S11305A05F904F903F902F900895CF93DF93CDB7F6
S11305B0DEB7C75CD1400FB6F894DEBF0FBECDBF27
S11305C086EBE0E0F1E0DE01119601900D928A9550
S11305D0E1F786EBE6EBF1E0DE01A954BF4F0190B1
S11305E00D928A95E1F78BE5ECE6F2E0DE01A35982
S11305F0BE4F01900D928A95E1F78AB38FEF8ABBC3
S113060087B3806187BB00E010E01EC0EDE6F1E037
S1130610EC0FFD1FE00FF11F80818BBBC801880F19
S1130620991FE7EBF0E0EC0FFD1FE80FF91F608165
S11306307181E1E0F0E0EC0FFD1FE80FF91F80810C
S113064091813ADD0F5F1F4F0A351105FCF288EEE8
S113065093E005C0E0E9F1E03197F1F701970097E5
S1130660C9F7D1CF5058BB27AA270ED075C166D180
S113067030F06BD120F031F49F3F11F41EF45BC1D4
S11306800EF4E095E7FB51C1E92F77D180F3BA1757
S1130690620773078407950718F071F49EF58FC1FC
S11306A00EF4E0950B2EBA2FA02D0B01B901900189
S11306B00C01CA01A0011124FF27591B99F0593FCD
S11306C050F4503E68F11A16F040A22F232F342F15
S11306D04427585FF3CF469537952795A795F04063
S11306E05395C9F77EF41F16BA0B620B730B840B78
S11306F0BAF09150A1F0FF0FBB1F661F771F881F30
S1130700C2F70EC0BA0F621F731F841F48F4879587
S113071077956795B795F7959E3F08F0B3CF939576
S1130720880F08F09927EE0F979587950895D9D0EB
S113073008F481E008950CD00FC107D140F0FED039
S113074030F021F45F3F19F0F0C0511139C1F3C00A
S113075014D198F39923C9F35523B1F3951B550B81
S1130760BB27AA2762177307840738F09F5F5F4F80
S1130770220F331F441FAA1FA9F333D00E2E3AF0C1
S1130780E0E830D091505040E695001CCAF729D0DB
S1130790FE2F27D0660F771F881FBB1F261737072A
S11307A04807AB07B0E809F0BB0B802DBF01FF275A
S11307B093585F4F2AF09E3F510568F0B6C000C1C0
S11307C05F3FECF3983EDCF3869577956795B79594
S11307D0F7959F5FC9F7880F911D9695879597F9AF
S11307E00895E1E0660F771F881FBB1F6217730728
S11307F08407BA0720F0621B730B840BBA0BEE1F3D
S113080088F7E095089504D06894B111D9C008958B
S1130810BCD088F09F5790F0B92F9927B751A0F01A
S1130820D1F0660F771F881F991F1AF0BA95C9F780
S113083012C0B13081F0C3D0B1E00895C0C0672FB9
S1130840782F8827B85F39F0B93FCCF38695779530
S11308506795B395D9F73EF4909580957095619519
S11308607F4F8F4F9F4F0895E89409C097FB3EF444
S113087090958095709561957F4F8F4F9F4F9923E9
S1130880A9F0F92F96E9BB279395F6958795779567
S11308906795B795F111F8CFFAF4BB0F11F460FF27
S11308A01BC06F5F7F4F8F4F9F4F16C0882311F07F
S11308B096E911C0772321F09EE8872F762F05C093
S11308C0662371F096E8862F70E060E02AF09A952E
S11308D0660F771F881FDAF7880F9695879597F923
S11308E00895990F0008550FAA0BE0E8FEEF1616BD
S11308F01706E807F907C0F012161306E407F50710
S113090098F0621B730B840B950B39F40A2661F083
S1130910232B242B252B21F408950A2609F4A14026
S1130920A6958FEF811D811D089597F99F6780E833
S113093070E060E008959FEF80EC089500240A942D
S11309401616170618060906089500240A941216A6
S11309501306140605060895092E0394000C11F4D9
S1130960882352F0BB0F40F4BF2B11F460FF04C086
S11309706F5F7F4F8F4F9F4F089557FD9058440FDF
S1130980551F59F05F3F71F04795880F97FB991FEA
S113099061F09F3F79F087950895121613061406A7
S11309A0551FF2CF4695F1DF08C016161706180634
S11309B0991FF1CF86957105610508940895E8940F
S11309C0BB2766277727CB0197F908958ADF08F4B8
S11309D08FEF08950BD0C0CFB1DF28F0B6DF18F049
S11309E0952309F0A2CFA7CF1124EACFC6DFA0F345
S11309F0959FD1F3950F50E0551F629FF001729FB0
S1130A00BB27F00DB11D639FAA27F00DB11DAA1FCE
S1130A10649F6627B00DA11D661F829F2227B00D1B
S1130A20A11D621F739FB00DA11D621F839FA00DA6
S1130A30611D221F749F3327A00D611D231F849FF6
S1130A40600D211D822F762F6A2F11249F5750404D
S1130A508AF0E1F088234AF0EE0FFF1FBB1F661FE8
S1130A60771F881F91505040A9F79E3F510570F0A1
S1130A705CCFA6CF5F3FECF3983EDCF38695779589
S1130A806795B795F795E7959F5FC1F7FE2B880F9C
S1130A90911D9695879597F9089597FB072E16F45F
S1130AA0009406D077FD08D00BD007FC05D03EF4A7
S1130AB0909581959F4F0895709561957F4F089506
S1130AC0AA1BBB1B51E107C0AA1FBB1FA617B70770
S1130AD010F0A61BB70B881F991F5A95A9F780958C
S10F0AE09095BC01CD010895F894FFCF5F
S1130AEC2805DC042805DC042805DC039804180418
S1130AFC7003B802BC027003DC03BC02A403DC0365
S1130B0C18042805DC042805DC042805DC039804F7
S1130B1C180470034C02BC027003DC03BC021804FE
S1130B2CDC037003DC03180498042805100378050F
S1130B3C2805980494022805980418044C02980477
S1130B4C1804DC032805DC042805DC042805DC0374
S1130B5C9804180470034C02BC027003DC03BC023E
S1130B6CA403DC0318042805DC042805DC0428058C
S1130B7CDC039804180470034C02BC027003DC03FD
S1130B8CBC021804DC037003280528052805280575
S1130B9C2805DC0428054A0137014A0137014A01BA
S1130BACF70026010601DC00AE00AF00DC00F70004
S1130BBCAF00E900F70006014A0137014A01370189
S1130BCC4A01F70026010601DC009300AF00DC00AB
S1130BDCF700AF000601F700DC00F7000601260160
S1130BEC4A01C4005E014A012601A5004A012601FE
S1130BFC0601930026010601F7004A0137014A0158
S1130C0C37014A01F70026010601DC009300AF000E
S1130C1CDC00F700AF00E900F70006014A013701D8
S1130C2C4A0137014A01F70026010601DC00930052
S1130C3CAF00DC00F700AF000601F700DC004A014E
S1130C4C4A014A014A014A0137014A0110081008B5
S1130C5C100208040104100102100102041008100F
S1130C6C0810020804010410010210010204020419
S1130C7C0810402010081010080410080410100864
S1130C8C10081002080401041001021001020410DF
S1130C9C08100810020804010410010210010204D7
S10B0CAC1010101010081000D4
S9030000FC
