:1000000045C0000060C000005EC000005CC0000091
:100010005AC0000093C00000A5C0000054C00000FA
:1000200052C0000050C000004EC000004CC0000094
:100030004AC0000048C0000046C0000044C00000A4
:1000400042C0000040C000003EC000003CC00000B4
:100050003AC0000038C0000036C0000034C00000C4
:1000600032C0000030C000002EC000002CC00000D4
:100070002AC0000028C0000026C0000024C00000E4
:1000800022C0000020C000001EC0000011241FBEBE
:10009000CFEFD0E1DEBFCDBF11E0A0E0B1E0E4EEF4
:1000A000F1E000E00BBF02C007900D92A030B10755
:1000B000D9F721E0A0E0B1E001C01D92A230B20763
:1000C000E1F78DD08DC09CCFCF93DF9300D000D0CF
:1000D00000D0CDB7DEB71E821D8222C01A821982DF
:1000E00014C01C821B8206C02B813C812F5F3F4FB6
:1000F0003C832B832B813C812A353105ACF329814C
:100100003A812F5F3F4F3A83298329813A81203DED
:1001100037403CF32D813E812F5F3F4F3E832D833F
:100120002D813E8128173907CCF226960FB6F89418
:10013000DEBF0FBECDBFDF91CF9108951F920F920A
:100140000FB60F9211248F939F9381E090E09093CC
:100150000101809300019F918F910F900FBE0F902E
:100160001F9018951F920F920FB60F9211248F9324
:100170009F9382E090E090930101809300019F9112
:100180008F910F900FBE0F901F9018958FEF8ABB25
:1001900012B880E88FBF80E389BF1ABE809100014A
:1001A00090910101019739F4DF9B03C08FE08BBB75
:1001B00002C080EF8BBB80910001909101010297FA
:1001C00051F48BB3823018F483E08BBB04C08BB343
:1001D000880F880F8BBB81E090E076DFDFCFD6DF22
:0401E000F894FFCFC1
:00000001FF
