S00D00004C61625F352E7372656374
S113000045C0000060C000005EC000005CC000008D
S11300105AC0000092C10000C7C1000054C00000D3
S113002052C0000050C000004EC000004CC0000090
S11300304AC0000048C0000046C0000044C00000A0
S113004042C0000040C000003EC000003CC00000B0
S11300503AC0000038C0000036C0000034C00000C0
S113006032C0000030C000002EC000002CC00000D0
S11300702AC0000028C0000026C0000024C00000E0
S113008022C0000020C000001EC0000011241FBEBA
S1130090CFEFD0E1DEBFCDBF11E0A0E0B1E0E8E7F3
S11300A0F4E000E00BBF02C007900D92A231B1074B
S11300B0D9F721E0A2E1B1E001C01D92A631B20757
S11300C0E1F798D0D7C19CCF8FEF84BB8FE08093AA
S11300D0640012B88FB780688FBF80E389BF8AE05D
S11300E08ABF0895CF93DF93CDB7DEB728970FB6B5
S11300F0F894DEBF0FBECDBFFC0168EE73E093D170
S1130100CB012AE030E0B9018ED19C838B83CF01EF
S113011064E670E088D1CB01B90185D19A838983E3
S1130120809114019091150199234CF180E090E0A5
S113013055C08130910519F420E425BB06C0E9813E
S1130140FA81EC5FFE4F208125BB9C012F5F3F4F5E
S1130150F901E050FF4F90819093650080FF07C044
S11301608FE39FE10197F1F700C0000006C08FED17
S11301709EE20197F1F700C00000C90102C080E0CF
S113018090E082309105ACF22CC0FC01EE0FFF1F11
S113019021E030E02C0F3D1FE20FF31F0190F081AE
S11301A0E02DEC5FFE4F208125BB9C012F5F3F4F6C
S11301B0F901E050FF4F90819093650080FF07C0E4
S11301C08FE39FE10197F1F700C0000006C08FEDB7
S11301D09EE20197F1F700C00000C9018230910549
S11301E0A4F228960FB6F894DEBF0FBECDBFDF9100
S11301F0CF91089569DF8091120190911301892BA9
S113020091F48091140190911501992334F4809113
S113021010019091110166DF73C0809114019091D7
S1130220150160DF6DC08091120190911301039755
S1130230A1F5809114019091150199237CF480918A
S11302401001909111014EDF8091100190911101E4
S11302500196909311018093100115C080911401AF
S113026090911501892B51F48091140190911501FD
S11302700197909315018093140105C08091140196
S1130280909115012FDF8091140190911501019730
S1130290909315018093140133C0809114019091BF
S11302A0150199237CF480911001909111011ADFBA
S11302B08091100190911101019790931101809305
S11302C0100115C08091140190911501892B51F4EE
S11302D080911401909115010196909315018093DA
S11302E0140105C08091140190911501FBDE8091E9
S11302F014019091150101969093150180931401B6
S113030080911401909115018C3F984039F483E059
S113031090E090931301809312016DCF80911401AA
S113032090911501843D9E4F09F065CF81E090E0E6
S113033090931301809312015ECF1F920F920FB618
S11303400F9211242F938F939F932FEF89EF90E0B7
S1130350215080409040E1F700C0000088B78061E0
S113036088BF0C9919C080911201909113010197D3
S113037039F483E090E090931301809312010CC050
S11303808091120190911301039731F481E090E080
S113039090931301809312019F918F912F910F904D
S11303A00FBE0F901F9018951F920F920FB60F92C9
S11303B011242F938F939F932FEF89EF90E0215077
S11303C080409040E1F700C0000088B7806288BF99
S11303D00D9921C08091120190911301019731F080
S11303E08091120190911301039769F48091120195
S11303F09091130190930F0180930E0110921301B9
S11304001092120108C080910E0190910F019093F7
S11304101301809312019F918F912F910F900FBE22
S11304200F901F90189597FB072E16F4009406D092
S113043077FD08D00BD007FC05D03EF4909581954C
S11304409F4F0895709561957F4F0895AA1BBB1B1C
S113045051E107C0AA1FBB1FA617B70710F0A61BC0
S1130460B70B881F991F5A95A9F780959095BC01E1
S10B0470CD010895F894FFCFBB
S1130478010204083F065B4F666D7D077F6F01002C
S105048864000A
S9030000FC
