S00D00004C61625F312E7372656378
S113000045C0000058C0000056C0000054C00000A5
S113001052C0000050C000004EC000004CC00000A0
S11300204AC0000048C0000046C0000044C00000B0
S113003042C0000040C000003EC000003CC00000C0
S11300403AC0000038C0000036C0000034C00000D0
S113005032C0000030C000002EC000002CC00000E0
S11300602AC0000028C0000026C0000024C00000F0
S113007022C0000020C000001EC000001CC0000000
S11300801AC0000018C0000016C0000011241FBED2
S1130090CFEFD0E1DEBFCDBF11E0A0E0B1E0E0EDF5
S11300A0F5E000E00BBF02C007900D92A430B10749
S11300B0D9F7B2D18BC2A4CFCF93DF9300D000D0B5
S11300C000D0CDB7DEB71E821D8222C01A821982EB
S11300D014C01C821B8206C02B813C812F5F3F4FC2
S11300E03C832B832B813C8124383340ACF329811E
S11300F03A812F5F3F4F3A83298329813A81243FF4
S113010031403CF32D813E812F5F3F4F3E832D8351
S11301102D813E8128173907CCF226960FB6F89424
S1130120DEBF0FBECDBFDF91CF910895CF93DF9394
S11301308FEF8ABB8BBBC0E0D0E00EC08BB38111C4
S113014003C08FEF8BBB04C08BB38F3F09F41BBA82
S113015081E090E0B1DF2196C530D1057CF3DF91D9
S1130160CF9108950F931F93CF93DF9300D000D0C6
S1130170CDB7DEB78C018FEF8ABB1C821B8216C001
S1130180BAD16FEF70E049D18F5F8BBB81E090E013
S113019093DF81E090E090DF89819A8101969A83D0
S11301A089838B819C8101969C838B838B819C8129
S11301B0801791072CF30F900F900F900F90DF9101
S11301C0CF911F910F910895DF92EF92FF920F93B9
S11301D01F93CF93DF938FEF8ABBC0E8CBBB81E043
S11301E090E06ADFD0E4DBBB81E090E065DF10E201
S11301F01BBB81E090E060DF00E10BBB81E090E09D
S11302005BDF6894FF24F3F8FBBA81E090E054DFED
S11302106894EE24E2F8EBBA81E090E04DDF689454
S1130220DD24D1F8DBBA81E090E046DF81E08BBBCE
S113023081E090E041DFDBBA81E090E03DDFEBBAA2
S113024081E090E039DFFBBA81E090E035DF0BBB61
S113025081E090E031DF1BBB81E090E02DDFDBBB70
S113026081E090E029DFCBBB81E090E025DFDF91E6
S1130270CF911F910F91FF90EF90DF900895CF924F
S1130280DF92EF92FF920F931F93CF93DF93CC24CF
S1130290CA94CABAC1E0CBBB81E090E00DDFD3E0E1
S11302A0DBBB81E090E008DF17E01BBB81E090E05E
S11302B003DF0FE00BBB81E090E0FEDE0F2EFFE1D9
S11302C0FF2EF02DFBBA81E090E0F6DE0F2EFFE367
S11302D0EF2EF02DEBBA81E090E0EEDE0F2EFFE77B
S11302E0DF2EF02DDBBA81E090E0E6DECBBA81E0D0
S11302F090E0E2DEDBBA81E090E0DEDEEBBA81E0A2
S113030090E0DADEFBBA81E090E0D6DE0BBB81E060
S113031090E0D2DE1BBB81E090E0CEDEDBBB81E06F
S113032090E0CADECBBB81E090E0C6DE1BBA81E080
S113033090E0C2DECBBB81E090E0BEDE1BBADF9171
S1130340CF911F910F91FF90EF90DF90CF90089580
S1130350CF93DF938FEF8ABBC0E0D0E015C081E07C
S11303608BBB81E090E0A8DE86E08BBB81E090E06F
S1130370A3DE88E38BBB81E090E09EDE80EC8BBB48
S113038081E090E099DE2196C330D10544F3DF91FA
S1130390CF910895CF93DF938FEF8ABBC0E0D0E075
S11303A012C08BE08BBB81E090E086DE84E58BBBE2
S11303B081E090E081DE80EA8BBB81E090E07CDE2E
S11303C08FEF8BBB2196C330D1055CF3DF91CF91C6
S11303D008958FEF8ABBF8DE1BBA84E090E06CDEF0
S11303E0B7DF1BBA84E090E067DE49DF1BBA84E024
S11303F090E062DECFDF1BBA84E090E05DDE83E054
S113040090E0B0DE1BBA84E090E056DE8FDE1BBACB
S113041084E090E051DEDFCFDCDF97FB072E16F49B
S1130420009406D077FD08D00BD007FC05D03EF42D
S1130430909581959F4F0895709561957F4F08958C
S1130440AA1BBB1B51E107C0AA1FBB1FA617B707F6
S113045010F0A61BB70B881F991F5A95A9F7809512
S11304609095BC01CD0108958F929F92AF92BF9257
S1130470CF92DF92EF92FF92CF93DF93EC016881EA
S113048079818A819B81611571058105910521F42A
S113049064E279ED8BE597E02DE133EF41E050E044
S11304A038D049015A019B01AC01A7EAB1E44DD00F
S11304B06B017C01ACEEB4EFA501940152D0DC01D8
S11304C0CB018C0D9D1DAE1DBF1DB7FF03C0019751
S11304D0A109B04888839983AA83BB839F77DF915E
S11304E0CF91FF90EF90DF90CF90BF90AF909F900F
S11304F08F900895B9CF80E091E0B6CFA0E0B0E04E
S11305008093000190930101A0930201B093030131
S11305100895052E97FB16F400940FD057FD05D0CF
S113052024D007FC02D046F408C05095409530957D
S113053021953F4F4F4F5F4F08959095809570954B
S113054061957F4F8F4F9F4F089531D0A59F900D98
S1130550B49F900DA49F800D911D11240895B7FFA1
S1130560F4CFF3DF821B930B0895A1E21A2EAA1B8A
S1130570BB1BFD010DC0AA1FBB1FEE1FFF1FA2174F
S1130580B307E407F50720F0A21BB30BE40BF50B4C
S1130590661F771F881F991F1A9469F760957095D5
S11305A0809590959B01AC01BD01CF010895A29F58
S11305B0B001B39FC001A39F700D811D1124911D33
S11305C0B29F700D811D1124911D0895F894FFCFE1
S10705D00100000022
S9030000FC
